S01700004448542050726F746F747970696E672E737265635E
S11300000C945A000C946C000C946C000C946C00CE
S11300100C946C000C946C000C946C000C946C00AC
S11300200C946C000C946C000C946C000C946C009C
S11300300C946C000C946C000C946C000C946C008C
S11300400C946C000C946C000C946C000C946C007C
S11300500C946C000C946C000C946C000C946C006C
S11300600C946C000C946C000C946C000C946C005C
S11300700C946C000C946C000C946C000C946C004C
S11300800C946C000C946C000C946C000C946C003C
S11300900C946C000C946C000C946C000C946C002C
S11300A00C946C000C946C000C946C000C946C001C
S11300B00C946C0011241FBECFEFD8E0DEBFCDBF7F
S11300C021E0A0E0B1E001C01D92A130B207E1F748
S11300D00E94DF010C945A030C9400002FE78AE17C
S11300E096E0215080409040E1F700C0000010925B
S11300F000010895CF92DF92EF92FF92CF93DF93A6
S113010000D000D01F92CDB7DEB7682F792FFE0143
S1130110319685E0DF011D928A95E9F7109200017E
S113012073986B9A87E893E10197F1F700C0000098
S1130130739A6B982FE107C000C0215021F484E02A
S11301408093000183C06399F7CF809100018823D5
S113015041F07CC000C0215029F484E08093000168
S11301600BC023E3639BF6CF07C000C0215029F4E2
S113017084E0809300016AC023E36399F6CF809101
S11301800001882309F43DC061C000C0215031F44E
S11301905093000145E031C0422F24E2639BF5CF28
S11301A020910001211126C09BE09A95F1F700C02F
S11301B0639B1BC0E1E0F0E0EC0FFD1FE40FF11DB9
S11301C02081D701C601032E04C0880F991FAA1FDE
S11301D0BB1F0A94D2F7822B808307C000C0215032
S11301E029F450930001242F06C023E36399F6CF2A
S11301F0242F01C0242F31507AF64F5F453038F058
S113020008C040E0C12CD12C7601C39454E037E0FF
S1130210C4CF80910001811119C099818A81980FFE
S11302208B81980F8C81890F9D81891721F083E040
S1130230809300010BC0DE011196E62FF72FCE014B
S113024005962D912193A817B907D9F70F900F9010
S11302500F900F900F90DF91CF91FF90EF90DF9070
S1130260CF9008958F929F92AF92BF92CF92DF92D8
S1130270EF92FF920F931F93CF93DF9300D000D0A0
S1130280CDB7DEB78C017B0119821A821B821C82D6
S1130290CE0101960E947A0080910001811173C001
S11302A06C818B81882384F48F7770E0782B072E00
S11302B0000C880B990B0E94A50220E030E040E27C
S11302C051EC0E9431020EC070E0782B072E000C16
S11302D0880B990B0E94A50220E030E040E251E433
S11302E00E943102F8016083718382839383698160
S11302F070E0762F66278A81682B072E000C880B06
S1130300990B0E94A50220E030E040E251E40E94F3
S113031031024B015C01F701608371838283938313
S1130320F801C080D180E280F38020E030E040E238
S113033052ECC701B6010E942C02882354F020E03D
S113034030E040EA52E4C701B6010E945503181692
S113035024F482E08093000116C020E030E0A9017B
S1130360C501B4010E942C02882354F020E030E03F
S113037048EC52E4C501B4010E94550318161CF45C
S113038081E0809300010F900F900F900F90DF9108
S1130390CF911F910F91FF90EF90DF90CF90BF907E
S11303A0AF909F908F900895539A559A569A569A63
S11303B0509A389A39983C9A0E946E000895CF93C7
S11303C0DF93CDB7DEB728970FB6F894DEBF0FBE24
S11303D0CDBF1D821E821F82188619821A821B823B
S11303E01C820E94D40131992EC024C0C980DA80B5
S11303F0EB80FC8020E030E040EA52E4C701B60123
S11304000E945503181624F45B9A5D985E98EBCF0E
S113041020E030E048E452E4C701B6010E942C0217
S1130420882324F45E9A5D985B98DDCF5D9A5B988F
S11304305E98D9CFBE016B5F7F4FCE0101960E94BB
S113044032014498D3CFBE016B5F7F4FCE0101963A
S11304500E943201449ACACF0E94E00208F481E06B
S113046008950E9445020C941B030E94140358F043
S11304700E940D0340F029F45F3F29F00C9404031B
S113048051110C944F030C940A030E942C0368F33B
S11304909923B1F3552391F3951B550BBB27AA2739
S11304A062177307840738F09F5F5F4F220F331F73
S11304B0441FAA1FA9F335D00E2E3AF0E0E832D03B
S11304C091505040E695001CCAF72BD0FE2F29D03E
S11304D0660F771F881FBB1F261737074807AB0710
S11304E0B0E809F0BB0B802DBF01FF2793585F4F85
S11304F03AF09E3F510578F00C9404030C944F039A
S11305005F3FE4F3983ED4F3869577956795B79566
S1130510F7959F5FC9F7880F911D9695879597F971
S11305200895E1E0660F771F881FBB1F62177307EA
S11305308407BA0720F0621B730B840BBA0BEE1FFF
S113054088F7E0950895E89409C097FB3EF49095E8
S11305508095709561957F4F8F4F9F4F9923A9F098
S1130560F92F96E9BB279395F69587957795679527
S1130570B795F111F8CFFAF4BB0F11F460FF1BC06B
S11305806F5F7F4F8F4F9F4F16C0882311F096E9FE
S113059011C0772321F09EE8872F762F05C06623AC
S11305A071F096E8862F70E060E02AF09A95660F65
S11305B0771F881FDAF7880F9695879597F908951E
S11305C0990F0008550FAA0BE0E8FEEF1616170660
S11305D0E807F907C0F012161306E407F50798F0C8
S11305E0621B730B840B950B39F40A2661F0232BE1
S11305F0242B252B21F408950A2609F4A140A6955D
S11306008FEF811D811D089597F99F6780E870E041
S113061060E008959FEF80EC089500240A94161674
S1130620170618060906089500240A9412161306DC
S1130630140605060895092E0394000C11F488236A
S113064052F0BB0F40F4BF2B11F460FF04C06F5F86
S11306507F4F8F4F9F4F089557FD9058440F551F5C
S113066059F05F3F71F04795880F97FB991F61F030
S11306709F3F79F087950895121613061406551FA7
S1130680F2CF4695F1DF08C0161617061806991F13
S1130690F1CF86957105610508940895E894BB2708
S11306A066277727CB0197F908950E94E00208F4A2
S10B06B08FEF0895F894FFCFC9
S9030000FC
